{
  "_format": "hh-sol-artifact-1",
  "contractName": "BlockID",
  "sourceName": "contracts/BlockID.sol",
  "abi": [
    {
      "anonymous": false,
      "inputs": [
        {
          "indexed": true,
          "internalType": "address",
          "name": "user",
          "type": "address"
        },
        {
          "indexed": false,
          "internalType": "string",
          "name": "name",
          "type": "string"
        },
        {
          "indexed": false,
          "internalType": "string",
          "name": "email",
          "type": "string"
        }
      ],
      "name": "IdentityRegistered",
      "type": "event"
    },
    {
      "anonymous": false,
      "inputs": [
        {
          "indexed": true,
          "internalType": "address",
          "name": "user",
          "type": "address"
        }
      ],
      "name": "IdentityRevoked",
      "type": "event"
    },
    {
      "anonymous": false,
      "inputs": [
        {
          "indexed": true,
          "internalType": "address",
          "name": "user",
          "type": "address"
        },
        {
          "indexed": false,
          "internalType": "string",
          "name": "name",
          "type": "string"
        },
        {
          "indexed": false,
          "internalType": "string",
          "name": "email",
          "type": "string"
        }
      ],
      "name": "IdentityUpdated",
      "type": "event"
    },
    {
      "inputs": [
        {
          "internalType": "address",
          "name": "_user",
          "type": "address"
        }
      ],
      "name": "getIdentity",
      "outputs": [
        {
          "internalType": "string",
          "name": "",
          "type": "string"
        },
        {
          "internalType": "string",
          "name": "",
          "type": "string"
        },
        {
          "internalType": "uint256",
          "name": "",
          "type": "uint256"
        }
      ],
      "stateMutability": "view",
      "type": "function"
    },
    {
      "inputs": [
        {
          "internalType": "address",
          "name": "",
          "type": "address"
        }
      ],
      "name": "identities",
      "outputs": [
        {
          "internalType": "string",
          "name": "name",
          "type": "string"
        },
        {
          "internalType": "string",
          "name": "email",
          "type": "string"
        },
        {
          "internalType": "uint256",
          "name": "birthDate",
          "type": "uint256"
        },
        {
          "internalType": "bool",
          "name": "isRegistered",
          "type": "bool"
        }
      ],
      "stateMutability": "view",
      "type": "function"
    },
    {
      "inputs": [
        {
          "internalType": "string",
          "name": "_name",
          "type": "string"
        },
        {
          "internalType": "string",
          "name": "_email",
          "type": "string"
        },
        {
          "internalType": "uint256",
          "name": "_birthDate",
          "type": "uint256"
        }
      ],
      "name": "registerIdentity",
      "outputs": [],
      "stateMutability": "nonpayable",
      "type": "function"
    },
    {
      "inputs": [],
      "name": "revokeIdentity",
      "outputs": [],
      "stateMutability": "nonpayable",
      "type": "function"
    },
    {
      "inputs": [
        {
          "internalType": "string",
          "name": "_name",
          "type": "string"
        },
        {
          "internalType": "string",
          "name": "_email",
          "type": "string"
        },
        {
          "internalType": "uint256",
          "name": "_birthDate",
          "type": "uint256"
        }
      ],
      "name": "updateIdentity",
      "outputs": [],
      "stateMutability": "nonpayable",
      "type": "function"
    }
  ],
  "bytecode": "0x608060405234801561001057600080fd5b50610f84806100206000396000f3fe608060405234801561001057600080fd5b50600436106100575760003560e01c806317be79841461005c5780632fea7b811461007857806376040ed4146100aa578063dd4db94f146100c6578063f653b81e146100d0575b600080fd5b61007660048036038101906100719190610b13565b610103565b005b610092600480360381019061008d9190610aea565b6102af565b6040516100a193929190610ca0565b60405180910390f35b6100c460048036038101906100bf9190610b13565b61052b565b005b6100ce6106d8565b005b6100ea60048036038101906100e59190610aea565b610828565b6040516100fa9493929190610ce5565b60405180910390f35b6000803373ffffffffffffffffffffffffffffffffffffffff1673ffffffffffffffffffffffffffffffffffffffff16815260200190815260200160002060030160009054906101000a900460ff16610191576040517f08c379a000000000000000000000000000000000000000000000000000000000815260040161018890610d38565b60405180910390fd5b6040518060800160405280848152602001838152602001828152602001600115158152506000803373ffffffffffffffffffffffffffffffffffffffff1673ffffffffffffffffffffffffffffffffffffffff168152602001908152602001600020600082015181600001908051906020019061020f929190610975565b50602082015181600101908051906020019061022c929190610975565b506040820151816002015560608201518160030160006101000a81548160ff0219169083151502179055509050503373ffffffffffffffffffffffffffffffffffffffff167ffb96589d3b33bea42070ac9f2c42e02179f8d63c02a81c828772540ebe54bb0984846040516102a2929190610c69565b60405180910390a2505050565b60608060008060008573ffffffffffffffffffffffffffffffffffffffff1673ffffffffffffffffffffffffffffffffffffffff16815260200190815260200160002060030160009054906101000a900460ff16610342576040517f08c379a000000000000000000000000000000000000000000000000000000000815260040161033990610d38565b60405180910390fd5b6000808573ffffffffffffffffffffffffffffffffffffffff1673ffffffffffffffffffffffffffffffffffffffff1681526020019081526020016000206000016000808673ffffffffffffffffffffffffffffffffffffffff1673ffffffffffffffffffffffffffffffffffffffff1681526020019081526020016000206001016000808773ffffffffffffffffffffffffffffffffffffffff1673ffffffffffffffffffffffffffffffffffffffff1681526020019081526020016000206002015482805461041290610e7f565b80601f016020809104026020016040519081016040528092919081815260200182805461043e90610e7f565b801561048b5780601f106104605761010080835404028352916020019161048b565b820191906000526020600020905b81548152906001019060200180831161046e57829003601f168201915b5050505050925081805461049e90610e7f565b80601f01602080910402602001604051908101604052809291908181526020018280546104ca90610e7f565b80156105175780601f106104ec57610100808354040283529160200191610517565b820191906000526020600020905b8154815290600101906020018083116104fa57829003601f168201915b505050505091509250925092509193909250565b6000803373ffffffffffffffffffffffffffffffffffffffff1673ffffffffffffffffffffffffffffffffffffffff16815260200190815260200160002060030160009054906101000a900460ff16156105ba576040517f08c379a00000000000000000000000000000000000000000000000000000000081526004016105b190610d58565b60405180910390fd5b6040518060800160405280848152602001838152602001828152602001600115158152506000803373ffffffffffffffffffffffffffffffffffffffff1673ffffffffffffffffffffffffffffffffffffffff1681526020019081526020016000206000820151816000019080519060200190610638929190610975565b506020820151816001019080519060200190610655929190610975565b506040820151816002015560608201518160030160006101000a81548160ff0219169083151502179055509050503373ffffffffffffffffffffffffffffffffffffffff167fdc8c7948efd57970d2239c1bd917b1aacccb1af7b9d31499bb5ed1f80a79252784846040516106cb929190610c69565b60405180910390a2505050565b6000803373ffffffffffffffffffffffffffffffffffffffff1673ffffffffffffffffffffffffffffffffffffffff16815260200190815260200160002060030160009054906101000a900460ff16610766576040517f08c379a000000000000000000000000000000000000000000000000000000000815260040161075d90610d38565b60405180910390fd5b6000803373ffffffffffffffffffffffffffffffffffffffff1673ffffffffffffffffffffffffffffffffffffffff168152602001908152602001600020600080820160006107b591906109fb565b6001820160006107c591906109fb565b60028201600090556003820160006101000a81549060ff021916905550503373ffffffffffffffffffffffffffffffffffffffff167fccf550e579fbeb7d56da9a0175f8d4526535cab139e73b592516f1916d4075dd60405160405180910390a2565b600060205280600052604060002060009150905080600001805461084b90610e7f565b80601f016020809104026020016040519081016040528092919081815260200182805461087790610e7f565b80156108c45780601f10610899576101008083540402835291602001916108c4565b820191906000526020600020905b8154815290600101906020018083116108a757829003601f168201915b5050505050908060010180546108d990610e7f565b80601f016020809104026020016040519081016040528092919081815260200182805461090590610e7f565b80156109525780601f1061092757610100808354040283529160200191610952565b820191906000526020600020905b81548152906001019060200180831161093557829003601f168201915b5050505050908060020154908060030160009054906101000a900460ff16905084565b82805461098190610e7f565b90600052602060002090601f0160209004810192826109a357600085556109ea565b82601f106109bc57805160ff19168380011785556109ea565b828001600101855582156109ea579182015b828111156109e95782518255916020019190600101906109ce565b5b5090506109f79190610a3b565b5090565b508054610a0790610e7f565b6000825580601f10610a195750610a38565b601f016020900490600052602060002090810190610a379190610a3b565b5b50565b5b80821115610a54576000816000905550600101610a3c565b5090565b6000610a6b610a6684610da9565b610d78565b905082815260208101848484011115610a8357600080fd5b610a8e848285610e3d565b509392505050565b600081359050610aa581610f20565b92915050565b600082601f830112610abc57600080fd5b8135610acc848260208601610a58565b91505092915050565b600081359050610ae481610f37565b92915050565b600060208284031215610afc57600080fd5b6000610b0a84828501610a96565b91505092915050565b600080600060608486031215610b2857600080fd5b600084013567ffffffffffffffff811115610b4257600080fd5b610b4e86828701610aab565b935050602084013567ffffffffffffffff811115610b6b57600080fd5b610b7786828701610aab565b9250506040610b8886828701610ad5565b9150509250925092565b610b9b81610e07565b82525050565b6000610bac82610dd9565b610bb68185610de4565b9350610bc6818560208601610e4c565b610bcf81610f0f565b840191505092915050565b6000610be7601783610de4565b91507f4964656e74697479206e6f7420726567697374657265640000000000000000006000830152602082019050919050565b6000610c27601b83610de4565b91507f4964656e7469747920616c7265616479207265676973746572656400000000006000830152602082019050919050565b610c6381610e33565b82525050565b60006040820190508181036000830152610c838185610ba1565b90508181036020830152610c978184610ba1565b90509392505050565b60006060820190508181036000830152610cba8186610ba1565b90508181036020830152610cce8185610ba1565b9050610cdd6040830184610c5a565b949350505050565b60006080820190508181036000830152610cff8187610ba1565b90508181036020830152610d138186610ba1565b9050610d226040830185610c5a565b610d2f6060830184610b92565b95945050505050565b60006020820190508181036000830152610d5181610bda565b9050919050565b60006020820190508181036000830152610d7181610c1a565b9050919050565b6000604051905081810181811067ffffffffffffffff82111715610d9f57610d9e610ee0565b5b8060405250919050565b600067ffffffffffffffff821115610dc457610dc3610ee0565b5b601f19601f8301169050602081019050919050565b600081519050919050565b600082825260208201905092915050565b6000610e0082610e13565b9050919050565b60008115159050919050565b600073ffffffffffffffffffffffffffffffffffffffff82169050919050565b6000819050919050565b82818337600083830152505050565b60005b83811015610e6a578082015181840152602081019050610e4f565b83811115610e79576000848401525b50505050565b60006002820490506001821680610e9757607f821691505b60208210811415610eab57610eaa610eb1565b5b50919050565b7f4e487b7100000000000000000000000000000000000000000000000000000000600052602260045260246000fd5b7f4e487b7100000000000000000000000000000000000000000000000000000000600052604160045260246000fd5b6000601f19601f8301169050919050565b610f2981610df5565b8114610f3457600080fd5b50565b610f4081610e33565b8114610f4b57600080fd5b5056fea26469706673582212200a145ad154ba46cfe6dd000d8a0fefa630bcf7d35b8e89539f309090b4bd3d1a64736f6c63430008000033",
  "linkReferences": {},
  "deployedLinkReferences": {}
}